:100000000C9456000C9473000C9473000C947300C1
:100010000C9473000C9473000C9473000C94730094
:100020000C9473000C9473000C9473000C94730084
:100030000C9473000C9473000C9473000C94730074
:100040000C9473000C9489000C9473000C9473004E
:100050000C9473000C9473000C9473000C94730054
:100060000C9473000C9473000C9473000C94730044
:100070000C9473000C9473000C9473000C94730034
:100080000C9473000C9473000C9473000C94730024
:100090000C9473000C9473000C9473000C94730014
:1000A0000C9473000C9473000C94730011241FBE05
:1000B000CFEFDAE0DEBFCDBF11E0A0E0B1E0ECE3CE
:1000C000F2E002C005900D92A230B107D9F721E00D
:1000D000A2E0B1E001C01D92A630B207E1F70E9494
:1000E000BA000C941C010C9400008DE080938100F8
:1000F0008091020190910301909389008093880080
:10010000EFE6F0E08081826080838FB780688FBFE8
:1001100008951F920F920FB60F9211248F939F9301
:1001200010928500109284009BB180E298279BB9C1
:1001300095B1892785B9000095B180E2892785B9F5
:1001400000009F918F910F900FBE0F901F901895F8
:10015000579A8093D200E2ECF0E08081896080833E
:10016000E1ECF0E08081816080831092BF0010920A
:10017000BE000895E1E6F0E080E8808310822091DF
:10018000000130910101442737FD4095542F69E06B
:100190007DE380E090E00E94DB0030930301209338
:1001A0000201F8940E94750088E090E00E94A80087
:1001B0007894559AFFCF052E97FB1EF400940E9469
:1001C000F20057FD07D00E94FA0007FC03D04EF45E
:1001D0000C94F20050954095309521953F4F4F4F2C
:1001E0005F4F089590958095709561957F4F8F4FE3
:1001F0009F4F0895A1E21A2EAA1BBB1BFD010DC043
:10020000AA1FBB1FEE1FFF1FA217B307E407F507C6
:1002100020F0A21BB30BE40BF50B661F771F881FA2
:10022000991F1A9469F760957095809590959B0138
:0C023000AC01BD01CF010895F894FFCF90
:02023C000200BE
:00000001FF
