S00D000066697273742E73726563EF
S11300000C9456000C9473000C9473000C947300BD
S11300100C9473000C9473000C9473000C94730090
S11300200C9473000C9473000C9473000C94730080
S11300300C9473000C9473000C9473000C94730070
S11300400C9473000C947C010C9473000C94730056
S11300500C9473000C9473000C9473000C94730050
S11300600C9473000C94A0010C9473000C94730012
S11300700C9473000C9473000C9473000C94730030
S11300800C9473000C9473000C9473000C94730020
S11300900C9473000C9473000C9473000C94730010
S11300A00C9473000C9473000C94730011241FBE01
S11300B0CFEFDAE0DEBFCDBF11E0A0E0B1E0EEE4C7
S11300C0F4E002C005900D92A230B107D9F721E007
S11300D0A2E0B1E001C01D92A435B207E1F70E948D
S11300E05A010C9425020C940000E8ECF0E08081A5
S11300F08823ECF78091CE0090E0982F8827E8ECD5
S1130100F0E020812223ECF72091CE00822B089589
S11301108DE080938100809102019091030190937E
S1130120890080938800EFE6F0E08081826080831C
S11301308FB780688FBF0895579A8093D200E2ECFE
S1130140F0E0808189608083E1ECF0E0808181606F
S113015080831092BF001092BE0008958FEC90E04F
S11301609093CD008093CC0082E08093C800EAECA9
S1130170F0E0808186608083E9ECF0E0808188692A
S113018080830895E8ECF0E0908195FFFDCF8093A3
S1130190CE0008958F929F92AF92BF92CF92DF923A
S11301A0EF92FF920F931F93CF93DF93CDB7DEB7F8
S11301B028970FB6F894DEBF0FBECDBF01E010E064
S11301C002C00F5F1F4F81E60E94C200F801319701
S11301D0E130F10591F01CF4EF2B39F026C0E23048
S11301E0F10599F03397C9F020C082E60E94C2005D
S11301F00E947500C82E892EE4CF83E60E94C200B7
S11302000E947500D82E992EDCCF84E60E94C2008D
S11302100E947500E82EA92ED4CF85E60E94C20064
S11302200E947500F82EB92E03C0043011054CF25B
S113023086E60E94C200C9828A82DB829C82ED82A9
S1130240AE82FF82B8862C2D382D4D2D592D6E2D62
S11302507A2D8F2D9B2D28960FB6F894DEBF0FBEF6
S1130260CDBFDF91CF911F910F91FF90EF90DF9061
S1130270CF90BF90AF909F908F900895E8ECF0E0FE
S1130280208125FFFDCF9093CE00E8ECF0E0908133
S113029095FFFDCF8093CE000895E1E6F0E080E87D
S11302A0808310820895259A249A2C9A3E9A269A3D
S11302B0519A08950E944D0120910001309101014D
S11302C0442737FD4095542F69E07DE380E090E0BA
S11302D00E94E4013093030120930201559AF8949B
S11302E00E94880088E090E00E949C000E945301D4
S11302F078940E94AE00FFCF1F920F920FB60F9218
S113030011248F939F9310928500109284009BB1C7
S113031080E289278BB995B180E4892785B90000EB
S11303200000000095B180E4892785B90000000031
S113033000009F918F910F900FBE0F901F90189502
S11303401F920F920FB60F9211242F933F934F9346
S11303505F936F937F938F939F93AF93BF93CF9349
S1130360EF93FF93F894C091CE008C2F0E94C200AB
S1130370CB36B9F483E70E94C20082E00E94CA002F
S1130380E4E0F1E020833183428353836483758303
S113039086839783808191810E943E0188E70E9431
S11303A0C2007894FF91EF91CF91BF91AF919F914B
S11303B08F917F916F915F914F913F912F910F900A
S11303C00FBE0F901F901895052E97FB1EF40094F6
S11303D00E94FB0157FD07D00E94030207FC03D0D3
S11303E04EF40C94FB0150954095309521953F4F68
S11303F04F4F5F4F089590958095709561957F4F0D
S11304008F4F9F4F0895A1E21A2EAA1BBB1BFD011B
S11304100DC0AA1FBB1FEE1FFF1FA217B307E407DF
S1130420F50720F0A21BB30BE40BF50B661F771F37
S1130430881F991F1A9469F7609570958095909517
S11104409B01AC01BD01CF010895F894FFCFDC
S105044E0100A7
S9030000FC
