:100000000C944C000C9469000C9469000C946900E9
:100010000C9469000C9469000C9469000C946900BC
:100020000C9469000C9469000C9469000C946900AC
:100030000C9469000C9469000C9469000C9469009C
:100040000C9469000C9452010C9469000C946900A2
:100050000C949C010C9469000C9469000C94690048
:100060000C9469000C9469000C9469000C9469006C
:100070000C9469000C9469000C9469000C9469005C
:100080000C9477010C9469000C9469000C94D701CE
:100090000C9469000C94690011241FBECFEFD0E1CD
:1000A000DEBFCDBF11E0A0E0B1E0E8E2F4E002C0C5
:1000B00005900D92A230B107D9F711E0A2E0B1E0AE
:1000C00001C01D92A230B107E1F70E946B000C94B1
:1000D00012020C940000CF93DF9300D0CDB7DEB7AF
:1000E00084E290E020E3FC0120838CE790E02CE7A1
:1000F00030E0F90120812264FC01208384E890E053
:10010000FC011182108280E890E0FC01108281E8FD
:1001100090E0FC01108282E890E0FC01108281E80E
:1001200090E021E0FC01208388E890E020EC33E6B9
:10013000FC01318320838FE690E023E0FC012083E3
:100140001A82198206C0000089819A8101969A83D9
:10015000898389819A81F3E0883E9F07A4F384E92B
:1001600090E0FC011182108280E990E0FC01108295
:1001700081E990E0FC01108282E990E0FC011082AC
:1001800081E990E021E0FC01208388E990E020EC07
:1001900033E6FC013183208381E790E023E0FC011A
:1001A00020837894FFCFCF93DF9300D000D0CDB7DA
:1001B000DEB79B838A836C838FE590E0FC018081AE
:1001C0008983F8948C81833041F484E990E02A811A
:1001D0003B81FC013183208307C084E890E02A81C1
:1001E0003B81FC01318320838FE590E02981FC0174
:1001F00020830F900F900F900F90DF91CF91089573
:10020000CF93DF9300D00F92CDB7DEB78B838B8176
:10021000853019F08B81893029F48CE999E59A832E
:1002200089830FC08B81863019F08B818A3029F445
:1002300088E796E59A83898304C08CEA98E59A83D7
:10024000898389819A810F900F900F90DF91CF91D0
:100250000895CF93DF9300D00F92CDB7DEB78B8395
:100260008B818A3019F08B81893029F481EA99E5F4
:100270009A8389830FC08B81863019F08B818530FA
:1002800029F48DE796E59A83898304C085EC98E587
:100290009A83898389819A810F900F900F90DF91C3
:1002A000CF9108951F920F920FB60F9211242F93A2
:1002B0003F938F939F93EF93FF93CF93DF93CDB7AC
:1002C000DEB785E290E025E230E0F90120812F7D64
:1002D000FC012083DF91CF91FF91EF919F918F914E
:1002E0003F912F910F900FBE0F901F9018951F9266
:1002F0000F920FB60F9211242F933F938F939F93DA
:10030000EF93FF93CF93DF93CDB7DEB785E290E015
:1003100025E230E0F90120812F7EFC012083DF916E
:10032000CF91FF91EF919F918F913F912F910F90DE
:100330000FBE0F901F9018951F920F920FB60F923D
:1003400011242F933F934F935F936F937F938F93DA
:100350009F93AF93BF93EF93FF93CF93DF9300D01F
:10036000CDB7DEB785E290E020E2FC0120838091EA
:1003700000010E9429019A83898389819A8161E021
:100380000E94D3000F900F90DF91CF91FF91EF91DA
:10039000BF91AF919F918F917F916F915F914F919D
:1003A0003F912F910F900FBE0F901F9018951F92A5
:1003B0000F920FB60F9211242F933F934F935F9399
:1003C0006F937F938F939F93AF93BF93EF93FF931D
:1003D000CF93DF9300D0CDB7DEB785E290E020E188
:1003E000FC012083809100010E9400019A8389838F
:1003F00089819A8163E00E94D3000F900F90DF9172
:10040000CF91FF91EF91BF91AF919F918F917F918C
:100410006F915F914F913F912F910F900FBE0F9071
:080420001F901895F894FFCF1E
:020428000A00C8
:00000001FF
