S01700004763634170706C69636174696F6E312E737265635B
S11300000C944C000C9469000C9469000C946900E5
S11300100C9469000C9469000C9469000C946900B8
S11300200C9469000C9469000C9469000C946900A8
S11300300C9469000C9469000C9469000C94690098
S11300400C9469000C9469000C9469000C94690088
S11300500C9469000C9469000C9469000C94690078
S11300600C9469000C9469000C9469000C94690068
S11300700C9469000C9469000C9469000C94690058
S11300800C9469000C9469000C9469000C94690048
S11300900C9469000C94690011241FBECFEFD0E1C9
S11300A0DEBFCDBF11E0A0E0B1E0EEE6F2E002C0B9
S11300B005900D92A030B107D9F711E0A0E0B1E0AE
S11300C001C01D92A130B107E1F70E94F3000C9426
S11300D035010C94000084E15D9A97E09A95F1F75C
S11300E000C05D9897E09A95F1F700C08150A1F7A0
S11300F0089584E15D9897E09A95F1F700C05D98C2
S113010097E09A95F1F700C08150A1F7089587E030
S113011084B981E58CBD089515B88EBD0DB407FE74
S1130120FDCF6EBD0DB407FEFDCF81E085B9089506
S1130130CF93DF9388EA6FEF0E948C00CEB5D0E0B6
S113014089EA6FEF0E948C002EB5922F80E08C2BF1
S11301509D2B81509E4F9C01215030404AE02E3F00
S1130160340718F4109200010AC0813F910524F06D
S113017025E02093000103C02AE020930001DF91D1
S1130180CF910895CF93DF938AEA6FEF0E948C009A
S1130190CEB5D0E08BEA6FEF0E948C002EB5922F83
S11301A080E08C2B9D2B81509E4F9C012150304030
S11301B04AE02E3F340710F4000012C0813F91053D
S11301C044F020910001222359F429E020930001F6
S11301D007C020910001222319F426E02093000196
S11301E0DF91CF91089580E28AB90E94870080E26E
S11301F063E70E948C0078948FEF81B90E946B00B2
S11302008091000180FF03C00E946B0002C00E9425
S113021079008091000181FF03C00E946B0002C03D
S11302200E9479008091000182FF03C00E946B004C
S113023002C00E9479008091000183FF03C00E94E4
S11302406B0002C00E9479008091000182B98FE5A1
S11302509AEEA0E081509040A040E1F700C0000079
S11102600E9498000E94C200C9CFF894FFCFFC
S9030000FC
