:100000000C944C000C9469000C9469000C946900E9
:100010000C9469000C9469000C9469000C946900BC
:100020000C9469000C9469000C9469000C946900AC
:100030000C9469000C9469000C9469000C9469009C
:100040000C9469000C9469000C9469000C9469008C
:100050000C9469000C9469000C9469000C9469007C
:100060000C9469000C9469000C9469000C9469006C
:100070000C9469000C9469000C9469000C9469005C
:100080000C9469000C9469000C9469000C9469004C
:100090000C9469000C94690011241FBECFEFD0E1CD
:1000A000DEBFCDBF11E0A0E0B1E0E0E8F1E002C0CA
:1000B00005900D92A230B107D9F711E0A2E0B1E0AE
:1000C00001C01D92A730B107E1F70E9487000C9490
:1000D000BE000C94000084E15D9A97E09A95F1F7D8
:1000E00000C05D9897E09A95F1F700C08150A1F7A4
:1000F000089584E1000097E09A95F1F700C00000B0
:1001000097E09A95F1F700C08150A1F708958FEF1D
:1001100081B90E946B008091000180FF03C00E94A2
:100120006B0002C00E9479008091000181FF03C032
:100130000E946B0002C00E9479008091000182FF42
:1001400003C00E946B0002C00E94790080910001F0
:1001500083FF03C00E946B0002C00E94790092B12D
:1001600080910001892782B98FE79AE1A6E081504A
:100170009040A040E1F700C00000CBCFF894FFCF43
:02018000090074
:00000001FF
