:020000020000FC
:040000000C944C0010
:040054000C946B009D
:040064000C94740084
:1000980000E11FEF24E00EBF1DBF21B914B902E033
:1000A80015E02FEF32E004BD15BD27BD30936E007B
:1000B80000E916E020E03CE00093C9001093CA0074
:1000C8002093CD003093CC0078940C9469000F9362
:1000D8000FB70F93439542B90F910FBF0F91189522
:1000E8000F930FB70F930091CE000033A9F001339F
:1000F800D1F00233E1F00333F1F0043301F10533B9
:1001080011F1063321F1073331F1083341F1093395
:1001180051F1083561F12FC050E155B900E005BD36
:1001280002B90C94BF000FEF07BD0C94BF000FE796
:1001380007BD0C94BF0005E507BD0C94BF000FE395
:1001480007BD0C94BF0003E307BD0C94BF000AE28F
:1001580007BD0C94BF0004E207BD0C94BF000FE17B
:1001680007BD0C94BF000CE107BD0C94BF0000E074
:0E01780005BD04E002B90F910FBF0F9118955D
:00000001FF
