S00B0000756C332E7372656305
S11300000C944C000C9469000C9469000C946900E5
S11300100C9469000C9469000C9469000C946900B8
S11300200C9469000C9469000C9469000C946900A8
S11300300C9469000C9469000C9469000C94690098
S11300400C9469000C9469000C9469000C94690088
S11300500C94CD000C9469000C9469000C94690014
S11300600C9469000C9469000C9469000C94690068
S11300700C9469000C9469000C9469000C94690058
S11300800C9469000C9469000C9469000C94690048
S11300900C9469000C94690011241FBECFEFD0E1C9
S11300A0DEBFCDBF11E0A0E0B1E0ECEBF1E002C0B7
S11300B005900D92AC30B107D9F711E0ACE0B1E096
S11300C001C01D92AC30B107E1F70E9499000C9475
S11300D0DC000C940000E8ECF0E0908195FFFDCF8B
S11300E08093CE000895EF92FF920F931F93CF93C6
S11300F0DF93F82EE92E082F192FC0E0D0E006C0B8
S1130100F80181918F010E946B002196EF2DFE2D45
S1130110DF010D900020E9F71197AE1BBF0BCA1742
S1130120DB0770F3DF91CF911F910F91FF90EF9058
S11301300895CF93DF93CDB7DEB72C970FB6F8941D
S1130140DEBF0FBECDBF89E190E09093CD008093D8
S1130150CC0082E08093C80086E08093CA0088E0E7
S11301608093C9008FEF81B982B9109280001092F8
S1130170820081E080938100789480936F00DE0197
S11301801196E0E0F1E08CE001900D928150E1F7EE
S1130190CE0101960E947300FBCF1F920F920FB6FF
S11301A00F9211248F9382B1809582B98F910F9011
S10F01B00FBE0F901F901895F894FFCF1D
S10F01BC5374656E2D4F6C6976657200FB
S9030000FC
