S00D000073706561722E73726563FC
S11300000C944C000C9469000C9469000C946900E5
S11300100C9469000C9469000C9469000C946900B8
S11300200C9469000C9469000C9469000C946900A8
S11300300C9469000C9469000C9469000C94690098
S11300400C9469000C9477000C9486000C9469005D
S11300500C9469000C9469000C9469000C94690078
S11300600C9469000C9469000C9469000C94690068
S11300700C9469000C9469000C9469000C94690058
S11300800C9469000C9469000C9469000C94690048
S11300900C9469000C94690011241FBECFEFD0E1C9
S11300A0DEBFCDBF11E0A0E0B1E0E6E0F4E002C0C5
S11300B005900D92A430B107D9F711E0A4E0B1E0A6
S11300C001C01D92AC30B107E1F70E9492010C947B
S11300D001020C94000015B86EBD0DB407FEFDCFEF
S11300E08EBD0DB407FEFDCF81E085B908951F9242
S11300F00F920FB60F9211248F938091080182B949
S11301008F910F900FBE0F901F9018951F920F9212
S11301100FB60F9211248F9380910B0182B98F91A6
S11301200F900FBE0F901F9018958F929F92AF92D1
S1130130BF92CF92DF92EF92FF920F931F93CF93D0
S1130140DF930CE211E0CC24DD2476010F2EFBE6D4
S11301508F2EF0E09F2EF02D8FEF90E068EA70E094
S1130160F4010995CEB5D0E08FEF90E069EA70E034
S1130170F40109958EB5B82EAA24CA29DB29CE012B
S1130180AA2797FDA095BA2FC80ED91EEA1EFB1EFA
S11301900150104009F7C701B6012CE231E040E0FC
S11301A050E00E94C401BA01A901405050486F4F69
S11301B07F4F842F952FDF91CF911F910F91FF9047
S11301C0EF90DF90CF90BF90AF909F908F90089565
S11301D087E084B981E58CBD089588E08093C900E7
S11301E086E08093CA008CE090E09093CD008093E9
S11301F0CC000895E8ECF0E0908195FFFDCF80936A
S1130200CE000895CF93DF930E949500F82FE92F35
S11302108093090190930A01C0910101D0910201D8
S1130220BE010E94B001AC01440F551F440F551F7D
S1130230440F551F481B590B50938B0040938A0061
S11302408F2F9E2F8C179D0738F481E080930B012C
S113025082E0809308015FC09E01220F331F821742
S1130260930738F484E08093080182E080930B01C3
S113027052C09E01220F331F2C0F3D1F821793077C
S113028038F488E08093080184E080930B0143C034
S11302909E01220F331F220F331F8217930738F456
S11302A088E080930B0180E18093080134C09E01B3
S11302B0220F331F220F331F2C0F3D1F821793076A
S11302C038F480E180930B0180E28093080123C01D
S11302D09E01220F331F2C0F3D1F220F331F821745
S11302E0930738F480E280930B0180E48093080143
S11302F012C09E01220F331F220F331F220F331F00
S11303002C1B3D0B8217930730F480E480930B0180
S113031080E8809308018091090190910A01DF919E
S1130320CF9108950E94ED000E94E80087E760E203
S11303300E946B00F89483E08093800089E08093AE
S1130340810086E080936F0078948FEF93E0909320
S11303508900809388008FEF81B90E940201FDCF4C
S1130360AA1BBB1B51E107C0AA1FBB1FA617B707D7
S113037010F0A61BB70B881F991F5A95A9F78095F3
S11303809095BC01CD01089597FB092E05260ED04A
S113039057FD04D014D00AD0001C38F45095409571
S11303A0309521953F4F4F4F5F4F0895F6F7909545
S11303B08095709561957F4F8F4F9F4F0895A1E26F
S11303C01A2EAA1BBB1BFD010DC0AA1FBB1FEE1FCB
S11303D0FF1FA217B307E407F50720F0A21BB30B16
S11303E0E40BF50B661F771F881F991F1A9469F792
S11303F060957095809590959B01AC01BD01CF01EE
S10904000895F894FFCFFB
S10704060192240037
S9030000FC
