S014000069725F726563696576655F322E7372656362
S11300000C944C000C9469000C9469000C946900E5
S11300100C9469000C9469000C9469000C946900B8
S11300200C9469000C9469000C9469000C946900A8
S11300300C9469000C9469000C9469000C94690098
S11300400C9469000C9469000C9469000C94690088
S11300500C9469000C9469000C9469000C94690078
S11300600C9469000C9469000C9469000C94690068
S11300700C9469000C9469000C9469000C94690058
S11300800C9469000C9469000C9469000C94690048
S11300900C9469000C94690011241FBECFEFD0E1C9
S11300A0DEBFCDBF11E0A0E0B1E0E4EFF0E002C0BC
S11300B005900D92A030B107D9F711E0A0E0B1E0AE
S11300C001C01D92A030B107E1F70E946B000C94AF
S11300D078000C9400001DB81CB81EB88FEF81B9CD
S11300E09FE081E0609B02C092B9FCCF82B9FACF55
S10700F0F894FFCFAE
S9030000FC
