S00B0000756C332E7372656305
S11300000C944C000C9469000C9469000C946900E5
S11300100C9469000C9469000C9469000C946900B8
S11300200C9469000C9469000C9469000C946900A8
S11300300C9469000C9469000C9469000C94690098
S11300400C9469000C9469000C9469000C94690088
S11300500C9469000C9469000C9469000C94690078
S11300600C9469000C9469000C9469000C94690068
S11300700C9469000C9469000C9469000C94690058
S11300800C9469000C9469000C9469000C94690048
S11300900C9469000C94690011241FBECFEFD0E1C9
S11300A0DEBFCDBF11E0A0E0B1E0E2E6F1E002C0C6
S11300B005900D92A030B107D9F711E0A0E0B1E0AE
S11300C001C01D92A030B107E1F70E9485000C9495
S11300D0AF000C94000080E593EC00000197E9F771
S11300E0089581E082B90E946B0012B80E946B00EF
S11300F0089581E082B90E946B000E946B000E9407
S11301006B0012B80E946B00089581E081B982B936
S11301100E9471000E9471000E9471000E946B0095
S11301200E946B000E9479000E9479000E9479006D
S11301300E946B000E946B000E9471000E9471007B
S11301400E9471000E946B000E946B000E946B0071
S11301500E946B000E946B000E946B00D9CFF89440
S1050160FFCFCB
S9030000FC
