:100000000C944C000C9469000C9469000C946900E9
:100010000C9469000C9469000C9469000C946900BC
:100020000C9469000C9469000C9469000C946900AC
:100030000C9469000C9476010C9469000C9469008E
:100040000C9469000C9458010C9469000C9469009C
:100050000C9469000C9469000C9469000C9469007C
:100060000C9469000C9469000C9469000C9469006C
:100070000C9469000C9469000C9469000C9469005C
:100080000C9469000C9469000C9469000C9469004C
:100090000C9469000C94690011241FBECFEFD0E1CD
:1000A000DEBFCDBF11E0A0E0B1E0ECE2F3E002C0C2
:1000B00005900D92AA30B107D9F711E0AAE0B1E09E
:1000C00001C01D92AC30B107E1F70E946B000C94A7
:1000D00094010C940000CF93DF93CDB7DEB781E895
:1000E00090E02BE0FC01208380E890E0FC0110828E
:1000F00082E890E0FC0110828FE690E022E0FC01B3
:10010000208388E890E022E13AE7FC0131832083F4
:1001100085E490E02DE0FC01208384E490E0FC0184
:10012000108280E790E022E0FC01208383EB90E0E6
:100130002BE4FC01208381E290E021E0FC0120839C
:1001400082E290E021E0FC01208378948DE290E04F
:100150002FEFFC0120838EE290E0FC01108284E20C
:1001600090E020E8FC0120838AE290E020E1FC019D
:10017000208380910B01882F90E080509F4FFC01DD
:10018000808161E00E94D00080910A01882F90E078
:1001900080509F4FFC01808160E10E94D000E9CF38
:1001A000CF93DF9300D000D00F92CDB7DEB78C8312
:1001B0006D838D81803151F48BE290E02BE230E051
:1001C000F90120812F7EFC01208309C08BE290E0A1
:1001D0002BE230E0F90120812061FC0120831B82A9
:1001E0001A82198244C08EE290E02EE230E0F901DA
:1001F0002081277FFC01208381E090E0098002C0FC
:10020000880F991F0A94E2F7982F8C8189238B839A
:100210008B81882F90E0098002C0959587950A947C
:10022000E2F78B838B818295807F8B838EE290E0D7
:100230002EE230E0F90120812F7EFC0120838EE246
:1002400090E02EE230E0F90130812B81232BFC017C
:1002500020838EE290E02EE230E0F90120812860D8
:10026000FC01208389819A8101969A8389838981FF
:100270009A81883091050CF4B6CF85E290E025E2B2
:1002800030E0F90120812068FC012083000085E234
:1002900090E025E230E0F90120812F77FC012083F6
:1002A0000F900F900F900F900F90DF91CF910895C6
:1002B0001F920F920FB60F9211248F93CF93DF935B
:1002C000CDB7DEB780910B01883031F080910B0102
:1002D0008F5F80930B0102C010920B01DF91CF91D1
:1002E0008F910F900FBE0F901F9018951F920F9235
:1002F0000FB60F9211248F93CF93DF93CDB7DEB754
:1003000080910A01893031F080910A018F5F8093DA
:100310000A0102C010920A01DF91CF918F910F90D4
:0C0320000FBE0F901F901895F894FFCFAF
:0A032C00FC60DAF266B6BEE0FEF6F1
:00000001FF
