:100000000C944C000C9469000C9469000C946900E9
:100010000C9469000C9469000C9469000C946900BC
:100020000C9469000C9469000C9469000C946900AC
:100030000C9469000C9469000C9469000C9469009C
:100040000C9469000C9469000C9469000C9469008C
:100050000C9469000C9469000C9469000C948B005A
:100060000C9469000C9469000C9469000C9469006C
:100070000C9469000C9469000C9469000C9469005C
:100080000C9469000C9469000C9469000C9469004C
:100090000C9469000C94690011241FBECFEFD0E1CD
:1000A000DEBFCDBF11E0A0E0B1E0EEE8F2E002C0BB
:1000B00005900D92A030B107D9F711E0A0E0B1E0B2
:1000C00001C01D92A930B107E1F70E942B010C94E9
:1000D00045010C940000FB011482349623E030E0CB
:1000E000482F4170405D429321503040959587954F
:1000F0004FEF2F3F3407A1F7089584E1000097E008
:100100009A95F1F700C0000097E09A95F1F700C0CA
:100110008150A1F708951F920F920FB60F921124EC
:100120002F933F934F935F936F937F938F939F93FF
:10013000AF93BF93CF93DF93EF93FF93EAE7F0E0A2
:1001400080ED8083808186FF04C00000808186FD71
:10015000FCCF2091780030917900209300013093FA
:100160000101822F932F99230CF4CF96082E892F0B
:10017000000C881F990B000C881F991FC5E0D1E067
:1001800090E0BE010E946B00CE010E940A01FF9127
:10019000EF91DF91CF91BF91AF919F918F917F911F
:1001A0006F915F914F913F912F910F900FBE0F90E4
:1001B0001F90189584E1909104019BB997E09A955E
:1001C000F1F700C0909103019BB997E09A95F1F780
:1001D00000C0815081F708950E94DA000E947D00DE
:1001E0000895CF93DF93CDE7D0E0FE010995FE019E
:1001F0000995DF91CF91089588EC000097E09A95DA
:10020000F1F700C0000097E09A95F1F700C0815027
:10021000A1F708950F931F93CF93DF93D82FC92F82
:100220000E94EC000D2F1C2FC0E0D0E0F80181915E
:100230008F01813319F40E94EC0002C00E94F1008A
:100240002196C430D10591F70E94FC00DF91CF9137
:100250001F910F9108958FEF81B9F8948BB180624F
:10026000809304018BB18F7D80930301559A85E0C3
:1002700085BD81E080936E00789482E480937C0059
:0E02800080EC80937A000000FECFF894FFCF50
:00000001FF
