:100000000C944C000C9469000C9469000C946900E9
:100010000C9469000C9469000C9469000C946900BC
:100020000C9469000C9469000C9469000C946900AC
:100030000C9469000C9469000C9469000C9469009C
:100040000C9469000C9469000C9469000C9469008C
:100050000C9469000C9469000C9469000C9469007C
:100060000C9469000C9469000C9469000C9469006C
:100070000C9469000C9469000C9469000C9469005C
:100080000C9469000C9469000C9469000C9469004C
:100090000C9469000C94690011241FBECFEFD0E1CD
:1000A000DEBFCDBF11E0A0E0B1E0E0E5F2E002C0CC
:1000B00005900D92A030B107D9F711E0A0E0B1E0B2
:1000C00001C01D92A030B107E1F70E9474000C94AA
:1000D00026010C94000083E88093800089E08093DF
:1000E000810080E284B908958FEF81B96D981092F4
:1000F0008900109288000E946B006599FECF41E054
:1001000080E061E090E0C8E050E0E8E8F0E071E015
:10011000659928C00AE40A95F1F7ABE2B2E01197BD
:10012000F1F70000659B02C0652F01C06C2FABE2A8
:10013000B2E01197F1F70000659B6C5FABE2B2E0B3
:100140001197F1F70000659B6E5FABE2B2E011978B
:10015000F1F70000659B6F5FABE2B2E01197F1F73A
:1001600000006F5F9F5F93FF07C020813181260FE2
:10017000311D31832083952F20813181B3E0293EC9
:100180003B0768F011821082442311F08F5F01C099
:10019000815085300CF0452F8B3F0CF450C033B1AB
:1001A0003072B32FB095B072442321F118166CF45D
:1001B000232F2061B695B6952B2B30E0082E02C078
:1001C000220F331F0A94E2F738C03061B695B69516
:1001D0003B2BA32FB0E0282F332727FD30953095F8
:1001E00021953F4F8D0102C0159507952A95E2F79D
:1001F000980123C018166CF4369536953061B32BF0
:100200002B2F30E0082E02C0220F331F0A94E2F792
:1002100014C0369536953061B32BAB2FB0E0282F44
:10022000332727FD3095309521953F4F8D0102C032
:10023000159507952A95E2F7980122B969CF33B150
:100240003072B32FB095B072472FB0CFF894FFCF74
:00000001FF
