:100000000C944C000C9469000C9469000C946900E9
:100010000C9469000C9469000C9469000C946900BC
:100020000C9469000C9469000C9469000C946900AC
:100030000C9469000C9469000C9469000C9469009C
:100040000C9469000C9469000C9469000C9469008C
:100050000C9469000C9469000C9469000C9469007C
:100060000C9469000C9469000C9469000C9469006C
:100070000C9469000C9469000C9469000C9469005C
:100080000C9469000C9469000C9469000C9469004C
:100090000C9469000C94690011241FBECFEFD0E1CD
:1000A000DEBFCDBF11E0A0E0B1E0E0E2F1E002C0D0
:1000B00005900D92A030B107D9F711E0A0E0B1E0B2
:1000C00001C01D92A030B107E1F70E9470000C94AE
:1000D0008E000C94000001C000007D9BFDCF0895B0
:1000E00085B7806885BF85B7806885BF81E081B9A5
:1000F00080E281BB11E0C1E0D0E07D99FECF1F5FBF
:10010000183008F010E0CE01012E02C0880F991FB0
:100110000A94E2F782B90E946B00EFCFF894FFCF08
:00000001FF
