S00B0000756C312E7372656307
S11300000C944C000C9469000C9469000C946900E5
S11300100C9469000C9469000C9469000C946900B8
S11300200C9469000C9469000C9469000C946900A8
S11300300C9469000C9469000C9469000C94690098
S11300400C9469000C9469000C9469000C94690088
S11300500C9469000C9469000C9469000C94690078
S11300600C9469000C9469000C9469000C94690068
S11300700C9469000C9469000C9469000C94690058
S11300800C9469000C9469000C9469000C94690048
S11300900C9469000C94690011241FBECFEFD0E1C9
S11300A0DEBFCDBF11E0A0E0B1E0EEE2F2E002C0BD
S11300B005900D92A030B107D9F711E0A0E0B1E0AE
S11300C001C01D92A030B107E1F70E948F000C948B
S11300D015010C9400008093CE008091C80086FD29
S11300E006C0E8ECF0E00000808186FFFCCFE8EC7D
S11300F0F0E08081806480830895EAE7F0E080E89E
S11301008083808180648083808184FD04C00000BA
S1130110808184FFFCCF80E180937A00089589E197
S113012090E09093CD008093CC00E8ECF0E08081E7
S113013082608083EAECF0E0808186608083E9EC71
S1130140F0E0808188608083ECE7F0E08081826465
S113015080838FEF81B9C8E7D0E00E947D00888159
S113016099818536910528F480E390E00E946B0024
S1130170F4CF88819981893C910528F481E390E04A
S11301800E946B00EACF8881998121E08D32920729
S113019028F482E390E00E946B00DFCF888199818C
S11301A021E08139920728F483E390E00E946B00F8
S11301B0D4CF8881998121E0853F920728F484E394
S11301C090E00E946B00C9CF8881998122E0893533
S11301D0920728F485E390E00E946B00BECF8881EB
S11301E0998122E08D3B920728F486E390E00E94F7
S11301F06B00B3CF8881998123E08132920728F480
S113020087E390E00E946B00A8CF8881998123E066
S11302108538920728F488E390E00E946B009DCF14
S111022089E390E00E946B0098CFF894FFCF22
S9030000FC
