:020000020000FC
:040000000C944C0010
:040044000C947100A7
:1000980015B700E8012B05BF05BF0FEF0DBF00E145
:1000A8000EBF00E201BB0AE00093810040E15FEF70
:1000B800509389004093880001E001B901E002B93A
:1000C800789402E000936F001FB100E2012321F150
:1000D8001FB108E0012371F0F7CF1F921FB61F92DE
:1000E8000F9302B11FEF012702B90F911F901FBE96
:1000F8001F90189500E000938500009384000091FC
:100108008800109189001695109389000093880043
:100118000E94A2000C94680000E000938500009300
:1001280084000091880010918900110F10938900B4
:10013800009388000E94A2000C9468001FB11872F6
:060148001832E1F70895F2
:00000001FF
