:100000000C944C000C9469000C9469000C946900E9
:100010000C9469000C9469000C9469000C946900BC
:100020000C9469000C9469000C9469000C946900AC
:100030000C9469000C9469000C9469000C9469009C
:100040000C9469000C9469000C9469000C9469008C
:100050000C9469000C9469000C9469000C9469007C
:100060000C9469000C9469000C9469000C9469006C
:100070000C9469000C9469000C9469000C9469005C
:100080000C9469000C9469000C9469000C9469004C
:100090000C9469000C94690011241FBECFEFD0E1CD
:1000A000DEBFCDBF11E0A0E0B1E0EEE6F1E002C0BE
:1000B00005900D92A030B107D9F711E0A0E0B1E0B2
:1000C00001C01D92A030B107E1F70E9481000C949D
:1000D000B5000C940000EAE7F0E080E880838081BE
:1000E00080648083808184FD04C00000808184FF5F
:1000F000FCCF80E180937A00809178009091790024
:1001000008957894ECE7F0E080818264808380E356
:1001100084B9E0E8F0E010821092820089E08093D8
:10012000810083E88083E0EBF0E01082A1EBB0E097
:100130001C9291E09C938083C8E8D0E003EB10E030
:100140000E946B00998388830E946B009695879527
:1001500096958795F8018083F3CF2FB7F894909305
:0E0160008500809384002FBF0895F894FFCF90
:00000001FF
