:100000000C944C000C9469000C9469000C946900E9
:100010000C9469000C9469000C9469000C946900BC
:100020000C9469000C9469000C9469000C946900AC
:100030000C9469000C9469000C9469000C9469009C
:100040000C9469000C9469000C9469000C9469008C
:100050000C9469000C9469000C9469000C9469007C
:100060000C9469000C9469000C9469000C9469006C
:100070000C9469000C9469000C9469000C9469005C
:100080000C9469000C9469000C9469000C9469004C
:100090000C9469000C94690011241FBECFEFD0E1CD
:1000A000DEBFCDBF11E0A0E0B1E0EAE1F1E002C0C7
:1000B00005900D92A030B107D9F711E0A0E0B1E0B2
:1000C00001C01D92A030B107E1F70E9488000C9496
:1000D0008B000C94000084E190E05D9A27E02A9563
:1000E000F1F700C05D9827E02A95F1F700C001976D
:1000F000A1F784E190E0000027E02A95F1F700C025
:10010000000027E02A95F1F700C00197A1F70895B4
:0A0110000E946B00FDCFF894FFCFB2
:00000001FF
